{
  "contractName": "Vote",
  "abi": [
    {
      "inputs": [],
      "stateMutability": "nonpayable",
      "type": "constructor"
    },
    {
      "inputs": [],
      "name": "electionCommision",
      "outputs": [
        {
          "internalType": "address",
          "name": "",
          "type": "address"
        }
      ],
      "stateMutability": "view",
      "type": "function",
      "constant": true
    },
    {
      "inputs": [],
      "name": "winner",
      "outputs": [
        {
          "internalType": "address",
          "name": "",
          "type": "address"
        }
      ],
      "stateMutability": "view",
      "type": "function",
      "constant": true
    },
    {
      "inputs": [
        {
          "internalType": "string",
          "name": "_name",
          "type": "string"
        },
        {
          "internalType": "string",
          "name": "_party",
          "type": "string"
        },
        {
          "internalType": "uint256",
          "name": "_age",
          "type": "uint256"
        },
        {
          "internalType": "string",
          "name": "_gender",
          "type": "string"
        }
      ],
      "name": "candidateRegister",
      "outputs": [],
      "stateMutability": "nonpayable",
      "type": "function"
    },
    {
      "inputs": [],
      "name": "candidateList",
      "outputs": [
        {
          "components": [
            {
              "internalType": "string",
              "name": "name",
              "type": "string"
            },
            {
              "internalType": "string",
              "name": "party",
              "type": "string"
            },
            {
              "internalType": "uint256",
              "name": "age",
              "type": "uint256"
            },
            {
              "internalType": "string",
              "name": "gender",
              "type": "string"
            },
            {
              "internalType": "uint256",
              "name": "candidateId",
              "type": "uint256"
            },
            {
              "internalType": "address",
              "name": "candidateAddress",
              "type": "address"
            },
            {
              "internalType": "uint256",
              "name": "votes",
              "type": "uint256"
            }
          ],
          "internalType": "struct Vote.Candidate[]",
          "name": "",
          "type": "tuple[]"
        }
      ],
      "stateMutability": "view",
      "type": "function",
      "constant": true
    },
    {
      "inputs": [
        {
          "internalType": "string",
          "name": "_name",
          "type": "string"
        },
        {
          "internalType": "uint256",
          "name": "_age",
          "type": "uint256"
        },
        {
          "internalType": "string",
          "name": "_gender",
          "type": "string"
        }
      ],
      "name": "voteRegister",
      "outputs": [],
      "stateMutability": "nonpayable",
      "type": "function"
    },
    {
      "inputs": [],
      "name": "voterList",
      "outputs": [
        {
          "components": [
            {
              "internalType": "string",
              "name": "name",
              "type": "string"
            },
            {
              "internalType": "uint256",
              "name": "age",
              "type": "uint256"
            },
            {
              "internalType": "uint256",
              "name": "voterId",
              "type": "uint256"
            },
            {
              "internalType": "string",
              "name": "gender",
              "type": "string"
            },
            {
              "internalType": "uint256",
              "name": "voteCandidateId",
              "type": "uint256"
            },
            {
              "internalType": "address",
              "name": "voterAddress",
              "type": "address"
            }
          ],
          "internalType": "struct Vote.Voter[]",
          "name": "",
          "type": "tuple[]"
        }
      ],
      "stateMutability": "view",
      "type": "function",
      "constant": true
    },
    {
      "inputs": [
        {
          "internalType": "uint256",
          "name": "_voterId",
          "type": "uint256"
        },
        {
          "internalType": "uint256",
          "name": "_id",
          "type": "uint256"
        }
      ],
      "name": "vote",
      "outputs": [],
      "stateMutability": "nonpayable",
      "type": "function"
    },
    {
      "inputs": [
        {
          "internalType": "uint256",
          "name": "_startTime",
          "type": "uint256"
        },
        {
          "internalType": "uint256",
          "name": "_endTime",
          "type": "uint256"
        }
      ],
      "name": "voteTime",
      "outputs": [],
      "stateMutability": "nonpayable",
      "type": "function"
    },
    {
      "inputs": [],
      "name": "votingStatus",
      "outputs": [
        {
          "internalType": "string",
          "name": "",
          "type": "string"
        }
      ],
      "stateMutability": "view",
      "type": "function",
      "constant": true
    },
    {
      "inputs": [],
      "name": "result",
      "outputs": [],
      "stateMutability": "nonpayable",
      "type": "function"
    },
    {
      "inputs": [],
      "name": "emergency",
      "outputs": [],
      "stateMutability": "nonpayable",
      "type": "function"
    }
  ],
  "bytecode": "0x60806040526001600255600160035534801561001a57600080fd5b50336000806101000a81548173ffffffffffffffffffffffffffffffffffffffff021916908373ffffffffffffffffffffffffffffffffffffffff1602179055506124d28061006a6000396000f3fe608060405234801561001057600080fd5b50600436106100a95760003560e01c806386dcb6831161007157806386dcb6831461012e578063875791481461014c578063b384abef14610168578063caa6fea414610184578063cf5ce2e71461018e578063dfbf53ae146101aa576100a9565b806319f41a40146100ae57806324089918146100cc578063498ea441146100ea578063653721471461010857806365ca2be314610112575b600080fd5b6100b66101c8565b6040516100c3919061169e565b60405180910390f35b6100d46102c2565b6040516100e191906118b6565b60405180910390f35b6100f2610536565b6040516100ff9190611a44565b60405180910390f35b61011061083c565b005b61012c60048036038101906101279190611a9c565b610a49565b005b610136610b1c565b6040516101439190611aeb565b60405180910390f35b61016660048036038101906101619190611b6b565b610b40565b005b610182600480360381019061017d9190611a9c565b610d70565b005b61018c610f41565b005b6101a860048036038101906101a39190611c00565b610fec565b005b6101b2611357565b6040516101bf9190611aeb565b60405180910390f35b6060600060045403610211576040518060400160405280601281526020017f566f74696e67206e6f742073746172746564000000000000000000000000000081525090506102bf565b600060045414158015610225575042600554115b8015610244575060001515600860009054906101000a900460ff161515145b15610286576040518060400160405280601281526020017f566f74696e6720696e2050726f6772657373000000000000000000000000000081525090506102bf565b6040518060400160405280600c81526020017f566f74696e6720456e646564000000000000000000000000000000000000000081525090505b90565b6060600060016002546102d59190611cf8565b67ffffffffffffffff8111156102ee576102ed611d2c565b5b60405190808252806020026020018201604052801561032757816020015b6103146114c3565b81526020019060019003908161030c5790505b5090506000600190505b60025481101561052e57600660008281526020019081526020016000206040518060c001604052908160008201805461036990611d8a565b80601f016020809104026020016040519081016040528092919081815260200182805461039590611d8a565b80156103e25780601f106103b7576101008083540402835291602001916103e2565b820191906000526020600020905b8154815290600101906020018083116103c557829003601f168201915b50505050508152602001600182015481526020016002820154815260200160038201805461040f90611d8a565b80601f016020809104026020016040519081016040528092919081815260200182805461043b90611d8a565b80156104885780601f1061045d57610100808354040283529160200191610488565b820191906000526020600020905b81548152906001019060200180831161046b57829003601f168201915b50505050508152602001600482015481526020016005820160009054906101000a900473ffffffffffffffffffffffffffffffffffffffff1673ffffffffffffffffffffffffffffffffffffffff1673ffffffffffffffffffffffffffffffffffffffff1681525050826001836104ff9190611cf8565b815181106105105761050f611dbb565b5b6020026020010181905250808061052690611dea565b915050610331565b508091505090565b6060600060016003546105499190611cf8565b67ffffffffffffffff81111561056257610561611d2c565b5b60405190808252806020026020018201604052801561059b57816020015b61058861150f565b8152602001906001900390816105805790505b5090506000600190505b60035481101561083457600760008281526020019081526020016000206040518060e00160405290816000820180546105dd90611d8a565b80601f016020809104026020016040519081016040528092919081815260200182805461060990611d8a565b80156106565780601f1061062b57610100808354040283529160200191610656565b820191906000526020600020905b81548152906001019060200180831161063957829003601f168201915b5050505050815260200160018201805461066f90611d8a565b80601f016020809104026020016040519081016040528092919081815260200182805461069b90611d8a565b80156106e85780601f106106bd576101008083540402835291602001916106e8565b820191906000526020600020905b8154815290600101906020018083116106cb57829003601f168201915b505050505081526020016002820154815260200160038201805461070b90611d8a565b80601f016020809104026020016040519081016040528092919081815260200182805461073790611d8a565b80156107845780601f1061075957610100808354040283529160200191610784565b820191906000526020600020905b81548152906001019060200180831161076757829003601f168201915b50505050508152602001600482015481526020016005820160009054906101000a900473ffffffffffffffffffffffffffffffffffffffff1673ffffffffffffffffffffffffffffffffffffffff1673ffffffffffffffffffffffffffffffffffffffff168152602001600682015481525050826001836108059190611cf8565b8151811061081657610815611dbb565b5b6020026020010181905250808061082c90611dea565b9150506105a5565b508091505090565b3373ffffffffffffffffffffffffffffffffffffffff1660008054906101000a900473ffffffffffffffffffffffffffffffffffffffff1673ffffffffffffffffffffffffffffffffffffffff16146108ca576040517f08c379a00000000000000000000000000000000000000000000000000000000081526004016108c190611ea4565b60405180910390fd5b600060016003546108db9190611cf8565b67ffffffffffffffff8111156108f4576108f3611d2c565b5b60405190808252806020026020018201604052801561092d57816020015b61091a61150f565b8152602001906001900390816109125790505b509050610938610536565b90508060018151811061094e5761094d611dbb565b5b602002602001015160c001518160008151811061096e5761096d611dbb565b5b602002602001015160c0015111156109e5578060008151811061099457610993611dbb565b5b602002602001015160a00151600160006101000a81548173ffffffffffffffffffffffffffffffffffffffff021916908373ffffffffffffffffffffffffffffffffffffffff160217905550610a46565b806001815181106109f9576109f8611dbb565b5b602002602001015160a00151600160006101000a81548173ffffffffffffffffffffffffffffffffffffffff021916908373ffffffffffffffffffffffffffffffffffffffff1602179055505b50565b3373ffffffffffffffffffffffffffffffffffffffff1660008054906101000a900473ffffffffffffffffffffffffffffffffffffffff1673ffffffffffffffffffffffffffffffffffffffff1614610ad7576040517f08c379a0000000000000000000000000000000000000000000000000000000008152600401610ace90611f36565b60405180910390fd5b8142610ae39190611f56565b60048190555080600454610af79190611f56565b6005819055506000600860006101000a81548160ff0219169083151502179055505050565b60008054906101000a900473ffffffffffffffffffffffffffffffffffffffff1681565b610b493361137d565b610b88576040517f08c379a0000000000000000000000000000000000000000000000000000000008152600401610b7f90611ff8565b60405180910390fd5b6012831015610bcc576040517f08c379a0000000000000000000000000000000000000000000000000000000008152600401610bc390612064565b60405180910390fd5b6040518060c0016040528086868080601f016020809104026020016040519081016040528093929190818152602001838380828437600081840152601f19601f820116905080830192505050505050508152602001848152602001600254815260200183838080601f016020809104026020016040519081016040528093929190818152602001838380828437600081840152601f19601f820116905080830192505050505050508152602001600081526020013373ffffffffffffffffffffffffffffffffffffffff168152506006600060025481526020019081526020016000206000820151816000019080519060200190610ccb929190611562565b5060208201518160010155604082015181600201556060820151816003019080519060200190610cfc929190611562565b506080820151816004015560a08201518160050160006101000a81548173ffffffffffffffffffffffffffffffffffffffff021916908373ffffffffffffffffffffffffffffffffffffffff16021790555090505060026000815480929190610d6490611dea565b91905055505050505050565b6000600660008481526020019081526020016000206004015414610dc9576040517f08c379a0000000000000000000000000000000000000000000000000000000008152600401610dc0906120d0565b60405180910390fd5b3373ffffffffffffffffffffffffffffffffffffffff166006600084815260200190815260200160002060050160009054906101000a900473ffffffffffffffffffffffffffffffffffffffff1673ffffffffffffffffffffffffffffffffffffffff1614610e6d576040517f08c379a0000000000000000000000000000000000000000000000000000000008152600401610e649061213c565b60405180910390fd5b6004544211610eb1576040517f08c379a0000000000000000000000000000000000000000000000000000000008152600401610ea8906121a8565b60405180910390fd5b600260035411610ef6576040517f08c379a0000000000000000000000000000000000000000000000000000000008152600401610eed9061223a565b60405180910390fd5b806006600084815260200190815260200160002060040181905550600760008281526020019081526020016000206006016000815480929190610f3890611dea565b91905055505050565b3373ffffffffffffffffffffffffffffffffffffffff1660008054906101000a900473ffffffffffffffffffffffffffffffffffffffff1673ffffffffffffffffffffffffffffffffffffffff1614610fcf576040517f08c379a0000000000000000000000000000000000000000000000000000000008152600401610fc6906122cc565b60405180910390fd5b6001600860006101000a81548160ff021916908315150217905550565b60008054906101000a900473ffffffffffffffffffffffffffffffffffffffff1673ffffffffffffffffffffffffffffffffffffffff163373ffffffffffffffffffffffffffffffffffffffff160361107a576040517f08c379a000000000000000000000000000000000000000000000000000000000815260040161107190612338565b60405180910390fd5b61108333611420565b6110c2576040517f08c379a00000000000000000000000000000000000000000000000000000000081526004016110b9906123a4565b60405180910390fd5b6012831015611106576040517f08c379a00000000000000000000000000000000000000000000000000000000081526004016110fd90612410565b60405180910390fd5b600380541061114a576040517f08c379a00000000000000000000000000000000000000000000000000000000081526004016111419061247c565b60405180910390fd5b6040518060e0016040528088888080601f016020809104026020016040519081016040528093929190818152602001838380828437600081840152601f19601f82011690508083019250505050505050815260200186868080601f016020809104026020016040519081016040528093929190818152602001838380828437600081840152601f19601f82011690508083019250505050505050815260200184815260200183838080601f016020809104026020016040519081016040528093929190818152602001838380828437600081840152601f19601f82011690508083019250505050505050815260200160035481526020013373ffffffffffffffffffffffffffffffffffffffff16815260200160008152506007600060035481526020019081526020016000206000820151816000019080519060200190611293929190611562565b5060208201518160010190805190602001906112b0929190611562565b506040820151816002015560608201518160030190805190602001906112d7929190611562565b506080820151816004015560a08201518160050160006101000a81548173ffffffffffffffffffffffffffffffffffffffff021916908373ffffffffffffffffffffffffffffffffffffffff16021790555060c082015181600601559050506003600081548092919061134990611dea565b919050555050505050505050565b600160009054906101000a900473ffffffffffffffffffffffffffffffffffffffff1681565b600080600190505b600254811015611415578273ffffffffffffffffffffffffffffffffffffffff166006600083815260200190815260200160002060050160009054906101000a900473ffffffffffffffffffffffffffffffffffffffff1673ffffffffffffffffffffffffffffffffffffffff160361140257600091505061141b565b808061140d90611dea565b915050611385565b50600190505b919050565b600080600190505b6003548110156114b8578273ffffffffffffffffffffffffffffffffffffffff166007600083815260200190815260200160002060050160009054906101000a900473ffffffffffffffffffffffffffffffffffffffff1673ffffffffffffffffffffffffffffffffffffffff16036114a55760009150506114be565b80806114b090611dea565b915050611428565b50600190505b919050565b6040518060c001604052806060815260200160008152602001600081526020016060815260200160008152602001600073ffffffffffffffffffffffffffffffffffffffff1681525090565b6040518060e001604052806060815260200160608152602001600081526020016060815260200160008152602001600073ffffffffffffffffffffffffffffffffffffffff168152602001600081525090565b82805461156e90611d8a565b90600052602060002090601f01602090048101928261159057600085556115d7565b82601f106115a957805160ff19168380011785556115d7565b828001600101855582156115d7579182015b828111156115d65782518255916020019190600101906115bb565b5b5090506115e491906115e8565b5090565b5b808211156116015760008160009055506001016115e9565b5090565b600081519050919050565b600082825260208201905092915050565b60005b8381101561163f578082015181840152602081019050611624565b8381111561164e576000848401525b50505050565b6000601f19601f8301169050919050565b600061167082611605565b61167a8185611610565b935061168a818560208601611621565b61169381611654565b840191505092915050565b600060208201905081810360008301526116b88184611665565b905092915050565b600081519050919050565b600082825260208201905092915050565b6000819050602082019050919050565b600082825260208201905092915050565b600061170882611605565b61171281856116ec565b9350611722818560208601611621565b61172b81611654565b840191505092915050565b6000819050919050565b61174981611736565b82525050565b600073ffffffffffffffffffffffffffffffffffffffff82169050919050565b600061177a8261174f565b9050919050565b61178a8161176f565b82525050565b600060c08301600083015184820360008601526117ad82826116fd565b91505060208301516117c26020860182611740565b5060408301516117d56040860182611740565b50606083015184820360608601526117ed82826116fd565b91505060808301516118026080860182611740565b5060a083015161181560a0860182611781565b508091505092915050565b600061182c8383611790565b905092915050565b6000602082019050919050565b600061184c826116c0565b61185681856116cb565b935083602082028501611868856116dc565b8060005b858110156118a457848403895281516118858582611820565b945061189083611834565b925060208a0199505060018101905061186c565b50829750879550505050505092915050565b600060208201905081810360008301526118d08184611841565b905092915050565b600081519050919050565b600082825260208201905092915050565b6000819050602082019050919050565b600060e083016000830151848203600086015261192182826116fd565b9150506020830151848203602086015261193b82826116fd565b91505060408301516119506040860182611740565b506060830151848203606086015261196882826116fd565b915050608083015161197d6080860182611740565b5060a083015161199060a0860182611781565b5060c08301516119a360c0860182611740565b508091505092915050565b60006119ba8383611904565b905092915050565b6000602082019050919050565b60006119da826118d8565b6119e481856118e3565b9350836020820285016119f6856118f4565b8060005b85811015611a325784840389528151611a1385826119ae565b9450611a1e836119c2565b925060208a019950506001810190506119fa565b50829750879550505050505092915050565b60006020820190508181036000830152611a5e81846119cf565b905092915050565b600080fd5b600080fd5b611a7981611736565b8114611a8457600080fd5b50565b600081359050611a9681611a70565b92915050565b60008060408385031215611ab357611ab2611a66565b5b6000611ac185828601611a87565b9250506020611ad285828601611a87565b9150509250929050565b611ae58161176f565b82525050565b6000602082019050611b006000830184611adc565b92915050565b600080fd5b600080fd5b600080fd5b60008083601f840112611b2b57611b2a611b06565b5b8235905067ffffffffffffffff811115611b4857611b47611b0b565b5b602083019150836001820283011115611b6457611b63611b10565b5b9250929050565b600080600080600060608688031215611b8757611b86611a66565b5b600086013567ffffffffffffffff811115611ba557611ba4611a6b565b5b611bb188828901611b15565b95509550506020611bc488828901611a87565b935050604086013567ffffffffffffffff811115611be557611be4611a6b565b5b611bf188828901611b15565b92509250509295509295909350565b60008060008060008060006080888a031215611c1f57611c1e611a66565b5b600088013567ffffffffffffffff811115611c3d57611c3c611a6b565b5b611c498a828b01611b15565b9750975050602088013567ffffffffffffffff811115611c6c57611c6b611a6b565b5b611c788a828b01611b15565b95509550506040611c8b8a828b01611a87565b935050606088013567ffffffffffffffff811115611cac57611cab611a6b565b5b611cb88a828b01611b15565b925092505092959891949750929550565b7f4e487b7100000000000000000000000000000000000000000000000000000000600052601160045260246000fd5b6000611d0382611736565b9150611d0e83611736565b925082821015611d2157611d20611cc9565b5b828203905092915050565b7f4e487b7100000000000000000000000000000000000000000000000000000000600052604160045260246000fd5b7f4e487b7100000000000000000000000000000000000000000000000000000000600052602260045260246000fd5b60006002820490506001821680611da257607f821691505b602082108103611db557611db4611d5b565b5b50919050565b7f4e487b7100000000000000000000000000000000000000000000000000000000600052603260045260246000fd5b6000611df582611736565b91507fffffffffffffffffffffffffffffffffffffffffffffffffffffffffffffffff8203611e2757611e26611cc9565b5b600182019050919050565b7f596f7520617265206e6f742066726f6d20656c656374696f6e20636f6d6d697360008201527f696f6e0000000000000000000000000000000000000000000000000000000000602082015250565b6000611e8e602383611610565b9150611e9982611e32565b604082019050919050565b60006020820190508181036000830152611ebd81611e81565b9050919050565b7f796f7520617265206e6f742066726f6d20656c656374696f6e20636f6d6d697360008201527f696f6e0000000000000000000000000000000000000000000000000000000000602082015250565b6000611f20602383611610565b9150611f2b82611ec4565b604082019050919050565b60006020820190508181036000830152611f4f81611f13565b9050919050565b6000611f6182611736565b9150611f6c83611736565b9250827fffffffffffffffffffffffffffffffffffffffffffffffffffffffffffffffff03821115611fa157611fa0611cc9565b5b828201905092915050565b7f796f75206861766520616c726561647920726567697374657265640000000000600082015250565b6000611fe2601b83611610565b9150611fed82611fac565b602082019050919050565b6000602082019050818103600083015261201181611fd5565b9050919050565b7f20796f75206172652062656c6f77206167650000000000000000000000000000600082015250565b600061204e601283611610565b915061205982612018565b602082019050919050565b6000602082019050818103600083015261207d81612041565b9050919050565b7f796f75206861766520616c726561647920566f74656400000000000000000000600082015250565b60006120ba601683611610565b91506120c582612084565b602082019050919050565b600060208201905081810360008301526120e9816120ad565b9050919050565b7f796f7520617265206e6f74207265676973746572656400000000000000000000600082015250565b6000612126601683611610565b9150612131826120f0565b602082019050919050565b6000602082019050818103600083015261215581612119565b9050919050565b7f566f74696e6720686173206e6f74207374617274656400000000000000000000600082015250565b6000612192601683611610565b915061219d8261215c565b602082019050919050565b600060208201905081810360008301526121c181612185565b9050919050565b7f43616e64696461746520726567697374726174696f6e206973206e6f7420646f60008201527f6e65207965740000000000000000000000000000000000000000000000000000602082015250565b6000612224602683611610565b915061222f826121c8565b604082019050919050565b6000602082019050818103600083015261225381612217565b9050919050565b7f796f7520617265206e6f742066726f6d20656c656374696f6e20636f6d6d697360008201527f696f6e2000000000000000000000000000000000000000000000000000000000602082015250565b60006122b6602483611610565b91506122c18261225a565b604082019050919050565b600060208201905081810360008301526122e5816122a9565b9050919050565b7f596f75206172652066726f6d20656c656374696f6e20636f6d6d6973696f6e00600082015250565b6000612322601f83611610565b915061232d826122ec565b602082019050919050565b6000602082019050818103600083015261235181612315565b9050919050565b7f596f75206861766520616c726561647920726567697374657265640000000000600082015250565b600061238e601b83611610565b915061239982612358565b602082019050919050565b600060208201905081810360008301526123bd81612381565b9050919050565b7f796f75206172652062656c6f7720313800000000000000000000000000000000600082015250565b60006123fa601083611610565b9150612405826123c4565b602082019050919050565b60006020820190508181036000830152612429816123ed565b9050919050565b7f526567697374726174696f6e2046756c6c000000000000000000000000000000600082015250565b6000612466601183611610565b915061247182612430565b602082019050919050565b6000602082019050818103600083015261249581612459565b905091905056fea26469706673582212201f0bed9a5dda60f76d8646f5f4505dcd96d6ec4b1112b8aa8ea019f3287723dc64736f6c634300080e0033",
  "immutableReferences": {},
  "source": "// SPDX-License-Identifier: MIT\r\npragma solidity ^0.8.0;\r\n\r\ncontract Vote{\r\n    address public electionCommision;\r\n    address public winner;\r\n\r\n    struct Voter{\r\n        string name;\r\n        uint age;\r\n        uint voterId;\r\n        string gender;\r\n        uint voteCandidateId;\r\n        address voterAddress;\r\n    }\r\n\r\n    struct Candidate{\r\n        string name;\r\n        string party;\r\n        uint age;\r\n        string gender;\r\n        uint candidateId;\r\n        address candidateAddress;\r\n        uint votes;\r\n    }\r\n\r\n    uint nextVoterId=1;\r\n    uint nextCandidateId=1;\r\n    uint startTime;\r\n    uint endTime;\r\n    mapping(uint=>Voter) voterDetails;\r\n    mapping(uint=>Candidate) candidateDetails;\r\n\r\n    bool stopVoting; //election Commition\r\n    // Voter[] private VoteArr;\r\n\r\n    constructor(){\r\n        electionCommision=msg.sender;\r\n    }\r\n\r\n    function candidateRegister(string calldata _name,string calldata _party,uint _age,string calldata _gender) external{\r\n        require(msg.sender!=electionCommision,\"You are from election commision\");\r\n        require(candidateVerification(msg.sender),\"You have already registered\");\r\n        require(_age>=18,\"you are below 18\");\r\n        require(nextCandidateId<3,\"Registration Full\");\r\n        candidateDetails[nextCandidateId]=Candidate(_name,_party,_age,_gender,nextCandidateId,msg.sender,0);\r\n        nextCandidateId++;\r\n    }\r\n\r\n    function candidateVerification(address _person) internal view returns(bool) {\r\n       for(uint i=1;i<nextCandidateId;i++){\r\n           if(candidateDetails[i].candidateAddress==_person){\r\n               return false;\r\n           }\r\n       }\r\n        return true;\r\n    }\r\n\r\n    function candidateList() public view returns(Candidate[] memory){\r\n        Candidate[] memory arr = new Candidate[](nextCandidateId-1);//empty array\r\n\r\n        for(uint i=1;i<nextCandidateId;i++){\r\n            arr[i-1]=candidateDetails[i];\r\n        }\r\n        return arr;\r\n    }\r\n\r\n    function voteRegister(string calldata _name,uint _age,string calldata _gender) external {\r\n        require(voterVerification(msg.sender),\"you have already registered\");\r\n        require(_age>=18,\" you are below age\");\r\n        voterDetails[nextVoterId]=Voter(_name,_age,nextVoterId,_gender,0,msg.sender);\r\n        // VoteArr.push(voterDetails[nextVoterId]);\r\n        nextVoterId++;\r\n\r\n    }\r\n\r\n    function voterVerification(address _user) internal view returns(bool){\r\n        for(uint i=1;i<nextVoterId;i++){\r\n            if(voterDetails[i].voterAddress==_user){\r\n                return false;\r\n            }\r\n        }\r\n        return true;\r\n    }\r\n\r\n    function voterList() external view returns(Voter[] memory){\r\n        Voter[] memory arr = new Voter[](nextVoterId-1);\r\n \r\n        for(uint i=1;i<nextVoterId;i++){\r\n            arr[i-1]=voterDetails[i];       \r\n        }\r\n        return arr;\r\n    }\r\n\r\n    function vote(uint _voterId,uint _id) external{\r\n        require(voterDetails[_voterId].voteCandidateId==0,\"you have already Voted\");\r\n        require(voterDetails[_voterId].voterAddress==msg.sender,\"you are not registered\");\r\n        require(block.timestamp>startTime,\"Voting has not started\");\r\n        require(nextCandidateId>2,\"Candidate registration is not done yet\");\r\n        voterDetails[_voterId].voteCandidateId=_id;\r\n        candidateDetails[_id].votes++;\r\n    }\r\n\r\n    //election Commision\r\n    function voteTime(uint _startTime,uint _endTime) external{\r\n        require(electionCommision==msg.sender,\"you are not from election commision\");\r\n        startTime=block.timestamp+_startTime;\r\n        endTime=startTime+_endTime;\r\n        stopVoting=false; \r\n    }\r\n\r\n    function votingStatus() external view returns(string memory){\r\n        if(startTime==0){\r\n            return \"Voting not started\";\r\n        }else if((startTime!=0 && endTime>block.timestamp) && stopVoting==false){\r\n            return \"Voting in Progress\";\r\n        }else{\r\n            return \"Voting Ended\";\r\n        }\r\n    }\r\n\r\n    function result() public{\r\n        require(electionCommision==msg.sender,\"You are not from election commision\");\r\n        Candidate[] memory arr = new Candidate[](nextCandidateId-1);\r\n        arr=candidateList(); \r\n\r\n        if(arr[0].votes>arr[1].votes){\r\n            winner = arr[0].candidateAddress;\r\n        }else{\r\n            winner = arr[1].candidateAddress;\r\n        }\r\n    }\r\n\r\n    function emergency() public{\r\n        require(electionCommision==msg.sender, \"you are not from election commision \");\r\n        stopVoting=true;\r\n    }\r\n\r\n    // modifier isVotingOver(){\r\n    //     require(endTime>block.timestamp || stopVoting,\"Voting is over\");\r\n    // }\r\n}\r\n",
  "sourcePath": "E:\\placement\\CORE SUB\\Blockchain\\Code eater course\\Projects\\Voting Dapp\\Vstarter\\contracts\\Voting.sol",
  "compiler": {
    "name": "solc",
    "version": "0.8.14+commit.80d49f37.Emscripten.clang"
  },
  "schemaVersion": "3.4.11",
  "updatedAt": "2023-02-12T03:42:00.554Z",
  "networkType": "ethereum",
  "devdoc": {
    "kind": "dev",
    "methods": {},
    "version": 1
  },
  "userdoc": {
    "kind": "user",
    "methods": {},
    "version": 1
  }
}